:100000000C94B3000C94D4000C94D4000C94D40041
:100010000C94D4000C94D4000C94D4000C94D40010
:100020000C94D4000C94D4000C94D4000C94D40000
:100030000C94D4000C94D4000C94D4000C94D400F0
:100040000C94D4000C94D4000C94D4000C94D400E0
:100050000C94D4000C94D4000C94D4000C94D400D0
:100060000C94D4000C94DE0D0C94D4000C94D400A9
:100070000C94D4000C94D4000C94D4000C94D400B0
:100080000C94D4000C94D4000C94D4000C94D400A0
:100090000C94D4000C94D4000C94D4000C94D40090
:1000A0000C94D4000C94D4000C94D4000C94D40080
:1000B0000C94D4000C94D4000C94D4000C94D40070
:1000C0000C94D4000C94D4000C94D4000C94D40060
:1000D0000C94D4000C94D4000C94D4000C94D40050
:1000E0000C94D40007634236B79BD8A71A396856D8
:1000F00018AEBAAB558C1D3CB7CC5763BD6DEDFD4A
:10010000753EF6177231BF000000803F0800000006
:10011000BE922449123EABAAAA2ABECDCCCC4C3EFC
:1001200000000080BEABAAAAAA3E00000000BF00EB
:100130000000803F0000000000084178D3BB4387E7
:10014000D1133D190E3CC3BD4282AD2B3E68EC82FB
:1001500076BED98FE1A93E4C80EFFFBE01C4FF7F80
:100160003F000000000011241FBECFEFD1E2DEBF30
:10017000CDBF00E00CBF13E0A0E0B2E0E8EAFAE394
:1001800000E00BBF02C007900D92AE30B107D9F767
:1001900013E0AEE0B3E001C01D92A032B107E1F779
:1001A0000E9432130C94521D0C9400000F931F9365
:1001B000DF93CF93CDB7DEB7C057D0400FB6F894DA
:1001C000DEBF0FBECDBFFE01E359FF4F80E090E0E0
:1001D000A0E8BFE380839183A283B3838E01075994
:1001E0001F4FFE01E359FF4F60817181828193812E
:1001F0002DEC3CEC4CE255E40E943A15DC01CB01BD
:10020000F80180839183A283B383FE01E759FF4FF6
:10021000608171818281938120E030E040E85FE37A
:100220000E944017882344F4FE01E959FF4F81E002
:1002300090E09183808364C0FE01E759FF4F6081A5
:1002400071818281938120E03FEF4FE757E40E9464
:10025000E01618160CF043C0FE01E359FF4F608111
:1002600071818281938120E030E040E251E40E947C
:100270003A15DC01CB018E0109591F4FBC01CD019C
:100280000E946413DC01CB01F801918380831FC0BD
:10029000FE01EB59FF4F84E191E091838083FE01E1
:1002A000EB59FF4F808191810197F1F7FE01EB59E6
:1002B000FF4F91838083DE01A959BF4FFE01E959A9
:1002C000FF4F80819181019711969C938E93FE013F
:1002D000E959FF4F808191810097D1F627C08E01A7
:1002E00009591F4FFE01E759FF4F608171818281DB
:1002F00093810E946413DC01CB01F8019183808318
:10030000DE01AD59BF4FFE01E959FF4F8081918158
:100310008D939C93FE01ED59FF4F80819181019750
:10032000F1F7FE01ED59FF4F91838083A8E2B0E021
:10033000E8E2F0E080818E7F8C93A8E2B0E0E8E212
:10034000F0E080818D7F8C93E8E2F0E080E38083B1
:10035000A8E2B0E0E8E2F0E0808184608C93FE01E6
:10036000E15AFF4F80E090E0A0EAB0E480839183FF
:10037000A283B3838E01055A1F4FFE01E15AFF4F3E
:1003800060817181828193812DEC3CEC4CE255E4DB
:100390000E943A15DC01CB01F80180839183A2838E
:1003A000B383FE01E55AFF4F6081718182819381A1
:1003B00020E030E040E85FE30E944017882344F4E7
:1003C000FE01E75AFF4F81E090E09183808364C093
:1003D000FE01E55AFF4F608171818281938120E0A7
:1003E0003FEF4FE757E40E94E01618160CF043C0A9
:1003F000FE01E15AFF4F608171818281938120E08B
:1004000030E040E251E40E943A15DC01CB018E015C
:10041000075A1F4FBC01CD010E946413DC01CB01C0
:10042000F801918380831FC0FE01E95AFF4F84E1E8
:1004300091E091838083FE01E95AFF4F8081918191
:100440000197F1F7FE01E95AFF4F91838083DE01A6
:10045000A75ABF4FFE01E75AFF4F80819181019754
:1004600011969C938E93FE01E75AFF4F80819181F4
:100470000097D1F627C08E01075A1F4FFE01E55A9B
:10048000FF4F60817181828193810E946413DC013E
:10049000CB01F80191838083DE01AB5ABF4FFE018F
:1004A000E75AFF4F808191818D939C93FE01EB5A17
:1004B000FF4F808191810197F1F7FE01EB5AFF4FC9
:1004C00091838083A8E2B0E0E8E2F0E080818B7F56
:1004D0008C93FE01EF5AFF4F80E090E0A0E8BFE36D
:1004E00080839183A283B3838E01035B1F4FFE0140
:1004F000EF5AFF4F60817181828193812DEC3CEC3A
:100500004CE255E40E943A15DC01CB01F8018083EE
:100510009183A283B383FE01E35BFF4F608171810E
:100520008281938120E030E040E85FE30E94401741
:10053000882344F4FE01E55BFF4F81E090E0918366
:10054000808364C0FE01E35BFF4F60817181828123
:10055000938120E03FEF4FE757E40E94E016181622
:100560000CF043C0FE01EF5AFF4F60817181828120
:10057000938120E030E040E251E40E943A15DC0132
:10058000CB018E01055B1F4FBC01CD010E9464139E
:10059000DC01CB01F801918380831FC0FE01E75B82
:1005A000FF4F84E191E091838083FE01E75BFF4F81
:1005B000808191810197F1F7FE01E75BFF4F918305
:1005C0008083DE01A55BBF4FFE01E55BFF4F8081AD
:1005D0009181019711969C938E93FE01E55BFF4FED
:1005E000808191810097D1F627C08E01055B1F4F56
:1005F000FE01E35BFF4F60817181828193810E94E4
:100600006413DC01CB01F80191838083DE01A95BD7
:10061000BF4FFE01E55BFF4F808191818D939C93DD
:10062000FE01E95BFF4F808191810197F1F7FE01A7
:10063000E95BFF4F91838083A8E2B0E0E8E2F0E05D
:1006400080818E7F8C93A8E2B0E0E8E2F0E08081C8
:100650008D7F8C93E8E2F0E080E38083A8E2B0E055
:10066000E8E2F0E0808184608C93FE01ED5BFF4F57
:1006700080E090E0A0EAB0E480839183A283B3831A
:100680008E01015C1F4FFE01ED5BFF4F60817181A8
:10069000828193812DEC3CEC4CE255E40E943A15AA
:1006A000DC01CB01F80180839183A283B383FE0137
:1006B000FF96608171818281938120E030E040E883
:1006C0005FE30E94401788232CF481E090E09EAF06
:1006D0008DAF46C0FE01FF9660817181828193815A
:1006E00020E03FEF4FE757E40E94E016181664F54C
:1006F000FE01ED5BFF4F608171818281938120E07B
:1007000030E040E251E40E943A15DC01CB01BC012B
:10071000CD010E946413DC01CB019EAF8DAF0FC0F1
:1007200084E191E09CAF8BAF8BAD9CAD0197F1F76D
:100730009CAF8BAF8DAD9EAD01979EAF8DAF8DAD54
:100740009EAD009769F716C0FE01FF96608171812A
:10075000828193810E946413DC01CB019EAF8DAF37
:100760008DAD9EAD9AAF89AF89AD9AAD0197F1F786
:100770009AAF89AFA8E2B0E0E8E2F0E080818B7F39
:100780008C9380E090E0A0E8BFE38DAB9EABAFAB75
:10079000B8AF6DA97EA98FA998AD2DEC3CEC4CE2C9
:1007A00055E40E943A15DC01CB0189AB9AABABABA7
:1007B000BCAB69A97AA98BA99CA920E030E040E8EC
:1007C0005FE30E94401788232CF481E090E098AB0F
:1007D0008FA73FC069A97AA98BA99CA920E03FEF08
:1007E0004FE757E40E94E01618164CF56DA97EA954
:1007F0008FA998AD20E030E040E251E40E943A1524
:10080000DC01CB01BC01CD010E946413DC01CB01F2
:1008100098AB8FA70FC084E191E09EA78DA78DA50F
:100820009EA50197F1F79EA78DA78FA598A901977F
:1008300098AB8FA78FA598A9009769F714C069A9ED
:100840007AA98BA99CA90E946413DC01CB0198AB07
:100850008FA78FA598A99CA78BA78BA59CA501976F
:10086000F1F79CA78BA7A8E2B0E0E8E2F0E0808176
:100870008E7F8C93A8E2B0E0E8E2F0E080818D7F8B
:100880008C93E8E2F0E080E38083A8E2B0E0E8E265
:10089000F0E0808184608C9380E090E0A0EAB0E496
:1008A0008FA398A7A9A7BAA76FA178A589A59AA58C
:1008B0002DEC3CEC4CE255E40E943A15DC01CB01F6
:1008C0008BA39CA3ADA3BEA36BA17CA18DA19EA174
:1008D00020E030E040E85FE30E94401788232CF4DA
:1008E00081E090E09AA389A33FC06BA17CA18DA178
:1008F0009EA120E03FEF4FE757E40E94E016181654
:100900004CF56FA178A589A59AA520E030E040E2DA
:1009100051E40E943A15DC01CB01BC01CD010E94DB
:100920006413DC01CB019AA389A30FC084E191E099
:1009300098A38F8F8F8D98A10197F1F798A38F8F30
:1009400089A19AA101979AA389A389A19AA1009745
:1009500069F714C06BA17CA18DA19EA10E946413B4
:10096000DC01CB019AA389A389A19AA19E8F8D8FC7
:100970008D8D9E8D0197F1F79E8F8D8FA8E2B0E04F
:10098000E8E2F0E080818B7F8C9380E090E0A0E84B
:10099000BFE3898F9A8FAB8FBC8F698D7A8D8B8DDA
:1009A0009C8D2DEC3CEC4CE255E40E943A15DC01A8
:1009B000CB018D8B9E8BAF8BB88F6D897E898F8994
:1009C000988D20E030E040E85FE30E9440178823E4
:1009D0002CF481E090E09C8B8B8B3FC06D897E89ED
:1009E0008F89988D20E03FEF4FE757E40E94E01693
:1009F00018164CF5698D7A8D8B8D9C8D20E030E03A
:100A000040E251E40E943A15DC01CB01BC01CD016A
:100A10000E946413DC01CB019C8B8B8B0FC084E1A3
:100A200091E09A8B898B89899A890197F1F79A8B42
:100A3000898B8B899C8901979C8B8B8B8B899C895B
:100A4000009769F714C06D897E898F89988D0E94FF
:100A50006413DC01CB019C8B8B8B8B899C89988BDD
:100A60008F878F8598890197F1F7988B8F87A8E2F8
:100A7000B0E0E8E2F0E080818E7F8C93A8E2B0E005
:100A8000E8E2F0E080818D7F8C93E8E2F0E080E2A4
:100A90008083A8E2B0E0E8E2F0E0808184608C939B
:100AA00080E090E0A0EAB0E48B879C87AD87BE87AA
:100AB0006B857C858D859E852DEC3CEC4CE255E468
:100AC0000E943A15DC01CB018F839887A987BA87EA
:100AD0006F81788589859A8520E030E040E85FE382
:100AE0000E94401788232CF481E090E09E838D8340
:100AF0003FC06F81788589859A8520E03FEF4FE779
:100B000057E40E94E01618164CF56B857C858D85A0
:100B10009E8520E030E040E251E40E943A15DC017D
:100B2000CB01BC01CD010E946413DC01CB019E838B
:100B30008D830FC084E191E09C838B838B819C81AA
:100B40000197F1F79C838B838D819E8101979E8312
:100B50008D838D819E81009769F714C06F817885A0
:100B600089859A850E946413DC01CB019E838D8365
:100B70008D819E819A83898389819A810197F1F77A
:100B80009A838983A8E2B0E0E8E2F0E080818B7F7D
:100B90008C93C059DF4F0FB6F894DEBF0FBECDBFA8
:100BA000CF91DF911F910F910895DF93CF93CDB730
:100BB000DEB72E970FB6F894DEBF0FBECDBF80E034
:100BC00090E0A0E8BFE38B879C87AD87BE876B85ED
:100BD0007C858D859E852DEC3CEC4CE255E40E9495
:100BE0003A15DC01CB018F839887A987BA876F817B
:100BF000788589859A8520E030E040E85FE30E94AF
:100C0000401788232CF481E090E09E838D833FC0C1
:100C10006F81788589859A8520E03FEF4FE757E41B
:100C20000E94E01618164CF56B857C858D859E8597
:100C300020E030E040E251E40E943A15DC01CB01B3
:100C4000BC01CD010E946413DC01CB019E838D8326
:100C50000FC084E191E09C838B838B819C81019701
:100C6000F1F79C838B838D819E8101979E838D8379
:100C70008D819E81009769F714C06F817885898581
:100C80009A850E946413DC01CB019E838D838D8144
:100C90009E819A83898389819A810197F1F79A834A
:100CA000898388E20E94690681E00E94690686E0E5
:100CB0000E9469068EE00E94690680E80E9469062B
:100CC0002E960FB6F894DEBF0FBECDBFCF91DF9149
:100CD0000895DF93CF93CDB7DEB76E970FB6F89434
:100CE000DEBF0FBECDBF8E8F8E8D8D8F8D8D807FA1
:100CF0008D8FA8E2B0E0E8E2F0E080818F708C9305
:100D0000A8E2B0E0E8E2F0E090818D8D892B8C9331
:100D1000A8E2B0E0E8E2F0E080818E7F8C93A8E268
:100D2000B0E0E8E2F0E080818D7F8C93A8E2B0E053
:100D3000E8E2F0E0808184608C9380E090E0A0EABB
:100D4000B0E4898F9A8FAB8FBC8F698D7A8D8B8D34
:100D50009C8D2DEC3CEC4CE255E40E943A15DC01F4
:100D6000CB018D8B9E8BAF8BB88F6D897E898F89E0
:100D7000988D20E030E040E85FE30E944017882330
:100D80002CF481E090E09C8B8B8B3FC06D897E8939
:100D90008F89988D20E03FEF4FE757E40E94E016DF
:100DA00018164CF5698D7A8D8B8D9C8D20E030E086
:100DB00040E251E40E943A15DC01CB01BC01CD01B7
:100DC0000E946413DC01CB019C8B8B8B0FC084E1F0
:100DD00091E09A8B898B89899A890197F1F79A8B8F
:100DE000898B8B899C8901979C8B8B8B8B899C89A8
:100DF000009769F714C06D897E898F89988D0E944C
:100E00006413DC01CB019C8B8B8B8B899C89988B29
:100E10008F878F8598890197F1F7988B8F87A8E244
:100E2000B0E0E8E2F0E080818B7F8C938E8D8F7054
:100E30008E8F8E8D8295807F8E8FA8E2B0E0E8E263
:100E4000F0E080818F708C93A8E2B0E0E8E2F0E0FF
:100E500090818E8D892B8C93A8E2B0E0E8E2F0E0DF
:100E600080818E7F8C93A8E2B0E0E8E2F0E08081A0
:100E70008D7F8C93A8E2B0E0E8E2F0E080818460AE
:100E80008C9380E090E0A0EAB0E48B879C87AD87EC
:100E9000BE876B857C858D859E852DEC3CEC4CE278
:100EA00055E40E943A15DC01CB018F839887A9870E
:100EB000BA876F81788589859A8520E030E040E89F
:100EC0005FE30E94401788232CF481E090E09E832A
:100ED0008D833FC06F81788589859A8520E03FEFBB
:100EE0004FE757E40E94E01618164CF56B857C8599
:100EF0008D859E8520E030E040E251E40E943A1565
:100F0000DC01CB01BC01CD010E946413DC01CB01EB
:100F10009E838D830FC084E191E09C838B838B81C2
:100F20009C810197F1F79C838B838D819E81019732
:100F30009E838D838D819E81009769F714C06F8198
:100F4000788589859A850E946413DC01CB019E8394
:100F50008D838D819E819A83898389819A8101976E
:100F6000F1F79A838983A8E2B0E0E8E2F0E08081BB
:100F70008B7F8C936E960FB6F894DEBF0FBECDBFFD
:100F8000CF91DF910895DF93CF93CDB7DEB76E9702
:100F90000FB6F894DEBF0FBECDBF8E8F8E8D8D8FB6
:100FA0008D8D807F8D8FA8E2B0E0E8E2F0E0808157
:100FB0008F708C93A8E2B0E0E8E2F0E090818D8D34
:100FC000892B8C93A8E2B0E0E8E2F0E080818160B8
:100FD0008C93A8E2B0E0E8E2F0E080818D7F8C9312
:100FE000A8E2B0E0E8E2F0E0808184608C9380E0E9
:100FF00090E0A0EAB0E4898F9A8FAB8FBC8F698DA7
:101000007A8D8B8D9C8D2DEC3CEC4CE255E40E944E
:101010003A15DC01CB018D8B9E8BAF8BB88F6D8920
:101020007E898F89988D20E030E040E85FE30E9460
:10103000401788232CF481E090E09C8B8B8B3FC081
:101040006D897E898F89988D20E03FEF4FE757E4C7
:101050000E94E01618164CF5698D7A8D8B8D9C8D4B
:1010600020E030E040E251E40E943A15DC01CB017F
:10107000BC01CD010E946413DC01CB019C8B8B8BE6
:101080000FC084E191E09A8B898B89899A890197B5
:10109000F1F79A8B898B8B899C8901979C8B8B8B21
:1010A0008B899C89009769F714C06D897E898F8927
:1010B000988D0E946413DC01CB019C8B8B8B8B89F8
:1010C0009C89988B8F878F8598890197F1F7988BEA
:1010D0008F87A8E2B0E0E8E2F0E080818B7F8C931C
:1010E0008E8D8F708E8F8E8D8295807F8E8FA8E2F1
:1010F000B0E0E8E2F0E080818F708C93A8E2B0E08D
:10110000E8E2F0E090818E8D892B8C93A8E2B0E02C
:10111000E8E2F0E0808181608C93A8E2B0E0E8E250
:10112000F0E080818D7F8C93A8E2B0E0E8E2F0E00F
:10113000808184608C9380E090E0A0EAB0E48B87AB
:101140009C87AD87BE876B857C858D859E852DECC4
:101150003CEC4CE255E40E943A15DC01CB018F8354
:101160009887A987BA876F81788589859A8520E0D5
:1011700030E040E85FE30E94401788232CF481E0D0
:1011800090E09E838D833FC06F81788589859A85A5
:1011900020E03FEF4FE757E40E94E01618164CF5A9
:1011A0006B857C858D859E8520E030E040E251E4B2
:1011B0000E943A15DC01CB01BC01CD010E946413F1
:1011C000DC01CB019E838D830FC084E191E09C8381
:1011D0008B838B819C810197F1F79C838B838D811D
:1011E0009E8101979E838D838D819E81009769F7F3
:1011F00014C06F81788589859A850E946413DC010B
:10120000CB019E838D838D819E819A838983898181
:101210009A810197F1F79A838983A8E2B0E0E8E226
:10122000F0E080818B7F8C936E960FB6F894DEBFD2
:101230000FBECDBFCF91DF910895DF93CF93CDB790
:10124000DEB780E80E946906CF91DF910895DF93B1
:10125000CF930F920F92CDB7DEB79A8389830AC0DE
:10126000E981FA8180810E94C30789819A81019670
:101270009A838983E981FA818081882389F70F9095
:101280000F90CF91DF910895DF93CF9300D00F920D
:10129000CDB7DEB789836A838981282F30E03C830C
:1012A0002B838B819C8182309105D9F02B813C81ED
:1012B0002330310534F48B819C818130910561F0BC
:1012C0001EC02B813C812330310581F08B819C81B4
:1012D0008430910581F013C08A8181580E9469068B
:1012E0000EC08A8181540E94690609C08A818D5688
:1012F0000E94690604C08A818D520E9469060F907F
:101300000F900F900F90CF91DF910895DF93CF93BF
:10131000CDB7DEB727970FB6F894DEBF0FBECDBFAF
:101320008A836B835D834C833F832E8319828A81FA
:10133000882319F08B81882319F40E941D0904C0A9
:101340008A816B810E9444098E819F81853091053D
:1013500019F089818130A9F48C819D8120E137E2E7
:10136000B9010E94901ACB01C0969093120380930A
:10137000110380911103909112030E94C30781E031
:1013800089838E819F818430910519F08981813014
:1013900011F58C819D8128EE33E0B9010E94901AED
:1013A000CB019093140380931303809113039091C6
:1013B00014032AE030E0B9010E94901AC09690937D
:1013C0001F0380931E0380911E0390911F030E94B0
:1013D000C30781E089838E819F818330910519F055
:1013E0008981813011F58C819D8124E630E0B9013D
:1013F0000E94901ACB019093140380931303809161
:101400001303909114032AE030E0B9010E94901A6E
:10141000C09690931B0380931A0380911A039091B6
:101420001B030E94C30781E089838E819F818230E4
:10143000910519F08981813011F58C819D812AE017
:1014400030E0B9010E94901ACB019093140380936D
:10145000130380911303909114032AE030E0B90143
:101460000E94901AC096909319038093180380915C
:101470001803909119030E94C30781E089838E812C
:101480009F818130910519F08981813091F48C819F
:101490009D812AE030E0B9010E94901AC096909395
:1014A0001D0380931C0380911C0390911D030E94D7
:1014B000C3078E819F81863091051CF085E40E94D0
:1014C000C30727960FB6F894DEBF0FBECDBFCF91EE
:1014D000DF910895DF93CF93CDB7DEB7A7E2B0E0F9
:1014E000E7E2F0E0808188608C93A8E2B0E0E8E277
:1014F000F0E08081877F8C93CF91DF910895DF9317
:10150000CF93CDB7DEB70E946A0ACF91DF910895DD
:10151000DF93CF930F92CDB7DEB71982E6E2F0E00A
:1015200080818983898188608983E8E2F0E089810C
:1015300080830F90CF91DF910895DF93CF930F9227
:10154000CDB7DEB71982E6E2F0E080818983898138
:10155000877F8983E8E2F0E0898180830F90CF91D3
:10156000DF910895DF93CF93CDB7DEB7E0E3F0E0EE
:101570001082E1E3F0E01082E7E0F1E01082E8E0C1
:10158000F1E01082CF91DF910895DF93CF93CDB733
:10159000DEB70E94B20ACF91DF910895DF93CF9317
:1015A000CDB7DEB7EAE7F0E01082EBE7F0E01082BB
:1015B000ECE7F0E080E28083E0E5F0E080E8808323
:1015C000EAE7F0E086E88083CF91DF910895DF932A
:1015D000CF930F920F92CDB7DEB78A838A8188307E
:1015E00020F0EBE7F0E088E080838A8187708A83CF
:1015F000ECE7F0E08A8180628083AAE7B0E0EAE766
:10160000F0E0808180648C93EAE7F0E08081882FAD
:1016100090E0807190700097B9F3E9E7F0E0808185
:101620008983AAE7B0E0EAE7F0E0808180618C93EB
:10163000EBE7F0E0108289810F900F90CF91DF915E
:101640000895DF93CF93CDB7DEB727970FB6F89401
:10165000DEBF0FBECDBF8F838F81882F90E0A0E0CB
:10166000B0E0BC01CD010E942218DC01CB01BC011D
:10167000CD012FEE39EC43E95FE30E94DB1ADC0178
:10168000CB019C01AD0160E070E080E89FE30E9427
:101690003416DC01CB01BC01CD012AE939EF4EE261
:1016A00055E40E943A15DC01CB01BC01CD0120E0DC
:1016B00030E040E251E40E943A15DC01CB01BC016C
:1016C000CD010E94CE17DC01CB01AA2797FDA09582
:1016D000BA2FBC01CD010E947017DC01CB018B83B6
:1016E0009C83AD83BE836B817C818D819E810E94B2
:1016F000CE17DC01CB019A83898389819A8123E00B
:101700008132920720F080E293E09A838983898175
:101710009A8127960FB6F894DEBF0FBECDBFCF914A
:10172000DF910895DF93CF93CDB7DEB727970FB63C
:10173000F894DEBF0FBECDBF8F838F81882F90E0DE
:10174000A0E0B0E0BC01CD010E942218DC01CB0179
:10175000BC01CD012BED34EA42EA5AE30E943A156E
:10176000DC01CB01BC01CD012AE037ED43EA5BE3AC
:101770000E940D15DC01CB019C01AD0160E070E021
:1017800080E89FE30E943416DC01CB01BC01CD014F
:101790002DE33AE047ED5EE30E94DC14DC01CB016F
:1017A000BC01CD0120E030E040E251E40E943A1556
:1017B000DC01CB018B839C83AD83BE836B817C81F9
:1017C0008D819E810E94CE17DC01CB019A83898393
:1017D00089819A8121E08D32920720F08CE291E09C
:1017E0009A83898389819A8127960FB6F894DEBF00
:1017F0000FBECDBFCF91DF910895DF93CF93CDB7CB
:10180000DEB7A1E2B0E0E1E2F0E080818F608C938E
:10181000A2E2B0E0E2E2F0E08081807F8C93AAE077
:10182000B1E0EAE0F1E0808188618C93ABE0B1E067
:10183000EBE0F1E0808188618C93CF91DF91089596
:10184000DF93CF93CDB7DEB70E94FD0BCF91DF9131
:101850000895DF93CF93CDB7DEB7E1E2F1E01082D8
:10186000E5E2F1E08FEF8083E4E2F1E081E0808364
:10187000E9E2F1E01082E8E2F1E08FEF8083EBE251
:10188000F1E01082EAE2F1E08FEF8083EDE2F1E037
:101890001082ECE2F1E08FEF8083E0E2F1E089EA90
:1018A0008083E1E2F1E08BE08083CF91DF910895C6
:1018B000DF93CF930F920F92CDB7DEB789836A8300
:1018C000E8E2F1E089818083EAE2F1E08A818083C5
:1018D0000F900F90CF91DF910895DF93CF930F92E8
:1018E0000F92CDB7DEB78A8319828A818F708A837F
:1018F000E2E2F0E0808189838981807F8983998118
:101900008A81892B8983E2E2F0E0898180830F90CC
:101910000F90CF91DF910895DF93CF93CDB7DEB7CE
:1019200086E00E946D0CCF91DF910895DF93CF93F5
:10193000CDB7DEB789E00E946D0CCF91DF9108959D
:10194000DF93CF93CDB7DEB785E00E946D0CCF91CA
:10195000DF910895DF93CF93CDB7DEB78AE00E9481
:101960006D0CCF91DF910895DF93CF93CDB7DEB7A4
:1019700084E00E946D0CCF91DF910895DF93CF93A7
:10198000CDB7DEB782E00E946D0CCF91DF91089554
:10199000DF93CF93CDB7DEB781E00E946D0CCF917E
:1019A000DF910895DF93CF93CDB7DEB788E00E9433
:1019B0006D0CCF91DF910895DF93CF93CDB7DEB754
:1019C00080E00E946D0CCF91DF910895DF93CF935B
:1019D000CDB7DEB7E1E8F0E01082E5E8F0E08CEFAB
:1019E0008083E4E8F0E081E08083E9E8F0E083E0F0
:1019F0008083E8E8F0E08FEF8083EBE8F0E083E0BD
:101A00008083EAE8F0E08FEF8083EDE8F0E083E0A8
:101A10008083ECE8F0E08FEF8083E7E8F0E083E09C
:101A20008083E6E8F0E08FEF8083E0E8F0E08BEA87
:101A30008083E2E8F0E01082E1E8F0E08CE080836F
:101A4000CF91DF910895DF93CF93CDB7DEB7A4E2B6
:101A5000B0E0E4E2F0E0808180628C93A5E2B0E047
:101A6000E5E2F0E0808180628C93CF91DF91089570
:101A7000DF93CF93CDB7DEB70E94230DCF91DF91D7
:101A800008950F931F93DF93CF9300D00F920F927F
:101A9000CDB7DEB78D8380E090E0A0E0B0E0898331
:101AA0009A83AB83BC838D81882F90E0A0E0B0E067
:101AB000BC01CD010E942218DC01CB01BC01CD018B
:101AC00020E030E040E150E40E943416DC01CB011C
:101AD000BC01CD0120E030E048EA51E40E940D1540
:101AE000DC01CB0189839A83AB83BC83E9E8F0E016
:101AF000108208E810E069817A818B819C810E94C4
:101B00006413DC01CB01F80180830F900F900F90DC
:101B10000F900F90CF91DF911F910F910895DF9358
:101B2000CF93CDB7DEB7E1ECF0E01082E0ECF0E06F
:101B30001082E2ECF0E086E08083E4ECF0E087E401
:101B40008083E5ECF0E01082E1ECF0E088E980834E
:101B5000CF91DF910895DF93CF93CDB7DEB7A7E2A2
:101B6000B0E0E7E2F0E08081876F8C93A8E2B0E01C
:101B7000E8E2F0E0808180788C93CF91DF91089546
:101B8000DF93CF9300D0CDB7DEB789836A834B83D1
:101B90008B810E94E70A8093150380911503282FFB
:101BA00030E089816A81A90123E030E00E94860942
:101BB0000F900F900F90CF91DF9108951F920F9289
:101BC0000FB60F9200905B000F9211248F93EF934A
:101BD000FF93DF93CF93CDB7DEB71092010210923F
:101BE0000002E6ECF0E0808180930E03E6ECF0E08A
:101BF00080910E038083CF91DF91FF91EF918F91C0
:101C00000F9000925B000F900FBE0F901F901895E1
:101C1000DF93CF93CDB7DEB7AC970FB6F894DEBFA6
:101C20000FBECDBF80910E03282F30E03CA72BA71D
:101C30008BA59CA58330910509F4AEC02BA53CA5CE
:101C4000243031057CF48BA59CA58130910521F1D0
:101C50002BA53CA52230310534F58BA59CA500971A
:101C6000A1F028C12BA53CA52630310509F414C1EB
:101C70008BA59CA58730910509F415C12BA53CA522
:101C80002430310509F48FC015C18FEF6FEF0E942A
:101C9000580C0E948C0C10C180E46FEF0E94580C0D
:101CA0000E948C0C09C18FEF6FEF0E94580C0E94AC
:101CB000A00C80E090E0A8E4B2E48FA398A7A9A7C5
:101CC000BAA76FA178A589A59AA52DEC3CEC4CE2AA
:101CD00055E40E943A15DC01CB018BA39CA3ADA374
:101CE000BEA36BA17CA18DA19EA120E030E040E8C5
:101CF0005FE30E94401788232CF481E090E09AA3D0
:101D000089A33FC06BA17CA18DA19EA120E03FEFE4
:101D10004FE757E40E94E01618164CF56FA178A51E
:101D200089A59AA520E030E040E251E40E943A15EE
:101D3000DC01CB01BC01CD010E946413DC01CB01AD
:101D40009AA389A30FC084E191E098A38F8F8F8D10
:101D500098A10197F1F798A38F8F89A19AA1019774
:101D60009AA389A389A19AA1009769F7A5C06BA13D
:101D70007CA18DA19EA10E946413DC01CB019AA3DA
:101D800089A389A19AA19E8F8D8F8D8D9E8D01979C
:101D9000F1F79E8F8D8F90C08FEF60E40E94580CFA
:101DA0000E948C0C89C08FEF6FEF0E94580C0E942C
:101DB000AA0C80E090E0A8E4B2E4898F9A8FAB8F00
:101DC000BC8F698D7A8D8B8D9C8D2DEC3CEC4CE21B
:101DD00055E40E943A15DC01CB018D8B9E8BAF8BB5
:101DE000B88F6D897E898F89988D20E030E040E83A
:101DF0005FE30E94401788232CF481E090E09C8BE5
:101E00008B8B3FC06D897E898F89988D20E03FEF55
:101E10004FE757E40E94E01618164CF5698D7A8D4D
:101E20008B8D9C8D20E030E040E251E40E943A1519
:101E3000DC01CB01BC01CD010E946413DC01CB01AC
:101E40009C8B8B8B0FC084E191E09A8B898B898965
:101E50009A890197F1F79A8B898B8B899C890197D5
:101E60009C8B8B8B8B899C89009769F725C06D892A
:101E70007E898F89988D0E946413DC01CB019C8B35
:101E80008B8B8B899C89988B8F878F8598890197FD
:101E9000F1F7988B8F8710C08FEF6FEF0E94580C6F
:101EA0000E94A00C09C08FEF6FEF0E94580C0E9497
:101EB000AA0C02C00E94DC0C80E090E0A8E4B2E42E
:101EC0008B879C87AD87BE876B857C858D859E853E
:101ED0002DEC3CEC4CE255E40E943A15DC01CB01C0
:101EE0008F839887A987BA876F81788589859A8536
:101EF00020E030E040E85FE30E94401788232CF4A4
:101F000081E090E09E838D833FC06F8178858985D5
:101F10009A8520E03FEF4FE757E40E94E01618163D
:101F20004CF56B857C858D859E8520E030E040E218
:101F300051E40E943A15DC01CB01BC01CD010E94A5
:101F40006413DC01CB019E838D830FC084E191E09B
:101F50009C838B838B819C810197F1F79C838B837E
:101F60008D819E8101979E838D838D819E810097B7
:101F700069F714C06F81788589859A850E946413FA
:101F8000DC01CB019E838D838D819E819A83898321
:101F900089819A810197F1F79A8389830E94DC0CE9
:101FA000AC960FB6F894DEBF0FBECDBFCF91DF91D8
:101FB0000895DF93CF93CDB7DEB72E970FB6F89481
:101FC000DEBF0FBECDBF809102020E94410D80E0B6
:101FD00090E0AFEAB3E48B879C87AD87BE876B85C3
:101FE0007C858D859E852DEC3CEC4CE255E40E9471
:101FF0003A15DC01CB018F839887A987BA876F8157
:10200000788589859A8520E030E040E85FE30E948A
:10201000401788232CF481E090E09E838D833FC09D
:102020006F81788589859A8520E03FEF4FE757E4F7
:102030000E94E01618164CF56B857C858D859E8573
:1020400020E030E040E251E40E943A15DC01CB018F
:10205000BC01CD010E946413DC01CB019E838D8302
:102060000FC084E191E09C838B838B819C810197DD
:10207000F1F79C838B838D819E8101979E838D8355
:102080008D819E81009769F714C06F81788589855D
:102090009A850E946413DC01CB019E838D838D8120
:1020A0009E819A83898389819A810197F1F79A8326
:1020B0008983809103020E94410D2E960FB6F894F9
:1020C000DEBF0FBECDBFCF91DF910895DF93CF93D9
:1020D000CDB7DEB767970FB6F894DEBF0FBECDBFA2
:1020E0000E94080E1E8A1D8A1C8A1B8A1A8A198A57
:1020F0000E94D90F1E8A1D8A188A1F8685C08CE00F
:102100000E94E70A8F8B8F890E94920B9C018D8918
:102110009E89820F931F9E8B8D8B80E090E0A0E2C2
:10212000B1E48B879C87AD87BE876B857C858D8569
:102130009E852DEC3CEC4CE255E40E943A15DC0106
:10214000CB018F839887A987BA876F817885898526
:102150009A8520E030E040E85FE30E944017882342
:102160002CF481E090E09E838D833FC06F81788561
:1021700089859A8520E03FEF4FE757E40E94E016FB
:1021800018164CF56B857C858D859E8520E030E0AA
:1021900040E251E40E943A15DC01CB01BC01CD01C3
:1021A0000E946413DC01CB019E838D830FC084E108
:1021B00091E09C838B838B819C810197F1F79C83B9
:1021C0008B838D819E8101979E838D838D819E81DE
:1021D000009769F714C06F81788589859A850E9478
:1021E0006413DC01CB019E838D838D819E819A8354
:1021F000898389819A810197F1F79A8389838F85F1
:1022000098890196988B8F878F8598898A30910558
:102210000CF475CF8D899E89CC01A0E0B0E0BC01A3
:10222000CD010E942218DC01CB01BC01CD0120E0D0
:1022300030E040E251E40E943416DC01CB01BC01E5
:10224000CD010E94CE17DC01CB019C8B8B8B809142
:1022500004029091050205979C018B899C89821745
:10226000930708F045CF89899A8901969A8B898BC3
:1022700089899A89833091050CF43ACF0E949D0A8E
:10228000809103020E94410D67960FB6F894DEBF5D
:102290000FBECDBFCF91DF910895DF93CF93CDB720
:1022A000DEB763970FB6F894DEBF0FBECDBF1A8AB4
:1022B000198A188A1F8685C08CE00E94E70A8B8BDA
:1022C0008B890E94920B9C0189899A89820F931FA6
:1022D0009A8B898B80E090E0A0E2B1E48B879C87A9
:1022E000AD87BE876B857C858D859E852DEC3CEC0E
:1022F0004CE255E40E943A15DC01CB018F839887AC
:10230000A987BA876F81788589859A8520E030E032
:1023100040E85FE30E94401788232CF481E090E0BE
:102320009E838D833FC06F81788589859A8520E063
:102330003FEF4FE757E40E94E01618164CF56B8507
:102340007C858D859E8520E030E040E251E40E944E
:102350003A15DC01CB01BC01CD010E946413DC0104
:10236000CB019E838D830FC084E191E09C838B839E
:102370008B819C810197F1F79C838B838D819E815A
:1023800001979E838D838D819E81009769F714C08C
:102390006F81788589859A850E946413DC01CB0161
:1023A0009E838D838D819E819A83898389819A8181
:1023B0000197F1F79A8389838F8598890196988B85
:1023C0008F878F859889843691050CF475CF89891C
:1023D0009A89CC01A0E0B0E0BC01CD010E94221896
:1023E000DC01CB01BC01CD0120E030E048EC52E43F
:1023F0000E943416DC01CB01BC01CD010E94CE1736
:10240000DC01CB01909305028093040263960FB622
:10241000F894DEBF0FBECDBFCF91DF910895DF935B
:10242000CF93CDB7DEB765970FB6F894DEBF0FBE7A
:10243000CDBF1C8A1B8A1A8A198A0E94DC0C188A52
:102440001F8685C08CE00E94E70A8D8B8D890E94D3
:10245000920B9C018B899C89820F931F9C8B8B8B89
:1024600080E090E0A0E2B1E48B879C87AD87BE87D7
:102470006B857C858D859E852DEC3CEC4CE255E48E
:102480000E943A15DC01CB018F839887A987BA8710
:102490006F81788589859A8520E030E040E85FE3A8
:1024A0000E94401788232CF481E090E09E838D8366
:1024B0003FC06F81788589859A8520E03FEF4FE79F
:1024C00057E40E94E01618164CF56B857C858D85C7
:1024D0009E8520E030E040E251E40E943A15DC01A4
:1024E000CB01BC01CD010E946413DC01CB019E83B2
:1024F0008D830FC084E191E09C838B838B819C81D1
:102500000197F1F79C838B838D819E8101979E8338
:102510008D838D819E81009769F714C06F817885C6
:1025200089859A850E946413DC01CB019E838D838B
:102530008D819E819A83898389819A810197F1F7A0
:102540009A8389838F8598890196988B8F878F8549
:1025500098898A3091050CF475CF8B899C89CC01C0
:10256000A0E0B0E0BC01CD010E942218DC01CB014B
:10257000BC01CD0120E030E040E251E40E9434167D
:10258000DC01CB01BC01CD010E94CE17DC01CB01E7
:102590009A8B898B29893A8981E06AE0A90123E035
:1025A00030E00E94860980910402909105029C010E
:1025B00081E06EE0A90123E030E00E94860980916D
:1025C0000402909105020A969C0189899A8928172C
:1025D000390750F480910F03909110030196909366
:1025E000100380930F030FC08091040290910502A5
:1025F0000A969C0189899A892817390720F0109238
:10260000100310920F0380910F03909110038230FA
:10261000910521F40E94880A0E94661065960FB603
:10262000F894DEBF0FBECDBFCF91DF910895DF9349
:10263000CF93CDB7DEB7F8940E94C50A0E94AB0DC8
:102640000E94CE0A0E947F0A0E94200C0E94E60C83
:102650000E94380D0E94290C0E948F0D7894CF9112
:10266000DF910895DF93CF930F920F92CDB7DEB72E
:102670000E9417130E94D6000E94D5058091030284
:102680000E94410D0E944D1178948091000290911A
:1026900001020097D1F7F89481E090E09093010255
:1026A000809300021A82198209C00E940F120E94B0
:1026B000080E89819A8101969A83898389819A81FA
:1026C0008530910594F3E0CFEF92FF920F931F9323
:1026D0007B018C0120E030E040E05FE40E941017B5
:1026E00088238CF0C801B70120E030E040E05FE4CF
:1026F0000E94DC140E94CE179B01AC012050304098
:102700004040504806C0C801B7010E94CE179B0147
:10271000AC01B901CA011F910F91FF90EF9008958C
:10272000A0E0B0E0E6E9F3E10C94A41ADC012B018F
:10273000FA019C91923008F439C1EB018881823012
:1027400008F433C1943069F4843009F02FC1119634
:102750009C9111978981981709F428C1A6E0B2E0ED
:1027600025C1843009F421C18230A9F4923009F0E6
:102770001DC19A01AD0188E0EA010990AE01E901AD
:1027800009929E018150C1F7E201898111969C91C5
:102790008923818308C1923009F407C112962D90D4
:1027A0003C901397EB018A819B811496AD90BD906C
:1027B000CD90DC901797EC80FD800E811F819101F8
:1027C000281B390BB90137FF04C066277727621B26
:1027D000730B603271050CF061C0121613066CF5B4
:1027E00037014801062E04C0969487947794679425
:1027F0000A94D2F721E030E040E050E004C0220F1C
:10280000331F441F551F6A95D2F721503040404076
:1028100050402E213F2140235123211531054105F0
:10282000510521F021E030E040E050E079018A01DB
:10283000E628F728082919293CC0232BD1F1260EB8
:10284000371E35014601062E04C09694879477946E
:1028500067940A94D2F721E030E040E050E004C0F1
:10286000220F331F441F551F6A95D2F72150304065
:10287000404050402A213B214C215D21211531054A
:102880004105510521F021E030E040E050E05901E0
:102890006A01A628B728C828D9280BC08215930535
:1028A0002CF01C01AA24BB24650103C0EE24FF24E4
:1028B000870111969C91D20111968C91981709F479
:1028C00045C0992339F0A80197012A193B094C0901
:1028D0005D0906C0A60195012E193F09400B510B59
:1028E00057FD08C0118233822282248335834683B8
:1028F00057831DC081E081833382228288279927F4
:10290000DC01821B930BA40BB50B84839583A683F8
:10291000B7830DC0220F331F441F551F24833583F7
:102920004683578382819381019793838283248195
:10293000358146815781DA01C9010197A109B109A1
:102940008F5F9F4FAF4FBF4328F30BC091833382FC
:102950002282EA0CFB1C0C1D1D1DE482F5820683FD
:10296000178383E08083248135814681578157FF17
:102970001AC0C901AA2797FDA095BA2F817090703F
:10298000A070B0705695479537952795822B932B5D
:10299000A42BB52B84839583A683B78382819381EF
:1029A000019693838283DF0101C0D201CD01CDB7AF
:1029B000DEB7E2E10C94C01AA0E2B0E0E2EEF4E18E
:1029C0000C94B01A69837A838B839C832D833E8316
:1029D0004F835887E9E0EE2EF12CEC0EFD1ECE0160
:1029E0000196B7010E94BF198E010F5E1F4FCE01E5
:1029F0000596B8010E94BF198A8991E089278A8BC0
:102A0000C701B801AE01475E5F4F0E9490130E945C
:102A1000EA18A096E6E00C94CC1AA0E2B0E0E3E15C
:102A2000F5E10C94B01A69837A838B839C832D83A0
:102A30003E834F835887F9E0EF2EF12CEC0EFD1EFC
:102A4000CE010196B7010E94BF198E010F5E1F4F84
:102A5000CE010596B8010E94BF19C701B801AE01A9
:102A6000475E5F4F0E9490130E94EA18A096E6E02E
:102A70000C94CC1AA0E2B0E0E0E4F5E10C94A41AC6
:102A800069837A838B839C832D833E834F8358870E
:102A9000CE010196BE01675F7F4F0E94BF19CE0134
:102AA0000596BE016F5E7F4F0E94BF1999859230D7
:102AB00088F089898230C8F0943019F4823051F45A
:102AC00004C0843029F4923081F486E092E0C6C0DC
:102AD000923049F420E09A858A89981321E02A8768
:102AE000CE010996BBC0823049F420E09A858A89DC
:102AF000981321E02A8BCE014196B0C02D843E84EC
:102B00004F8458886D887E888F88988CEE24FF24A7
:102B10008701AA24BB24650140E050E060E070E03A
:102B2000E0E0F0E0C10181709070892BE9F0E60CE3
:102B3000F71C081D191D9A01AB012A0D3B1D4C1DE8
:102B40005D1D80E090E0A0E0B0E0E614F704080529
:102B5000190520F481E090E0A0E0B0E0BA01A901FD
:102B6000480F591F6A1F7B1FAA0CBB1CCC1CDD1C05
:102B700097FE08C081E090E0A0E0B0E0A82AB92A62
:102B8000CA2ADB2A3196E032F10549F0660C771C3F
:102B9000881C991C5694479437942794C3CFFA8580
:102BA000EA892B893C898B859C85280F391F2E5FEC
:102BB0003F4F17C0CA0181709070892B61F0169544
:102BC0000795F794E79480E090E0A0E0B0E8E82A69
:102BD000F92A0A2B1B2B76956795579547952F5FFA
:102BE0003F4F77FDE7CF0CC0440F551F661F771F7F
:102BF00017FD4160EE0CFF1C001F111F21503040DB
:102C0000403090E0590790E0690790E4790760F35D
:102C10002B8F3C8FDB01CA018F779070A070B07052
:102C200080349105A105B10561F447FD0AC0E114A6
:102C3000F1040105110529F0405C5F4F6F4F7F4F94
:102C400040781A8EFE1711F081E08A8F4D8F5E8FCB
:102C50006F8F78A383E0898FCE0149960E94EA188E
:102C6000A096E2E10C94C01AA8E1B0E0EAE3F6E134
:102C70000C94AC1A69837A838B839C832D833E8367
:102C80004F835887B9E0EB2EF12CEC0EFD1ECE01E0
:102C90000196B7010E94BF198E010F5E1F4FCE0132
:102CA0000596B8010E94BF192985223008F47EC01C
:102CB0003989323010F4B8017CC08A859A89892715
:102CC0008A87243011F0223031F4231709F06EC0C6
:102CD00066E072E06EC0343039F41D861E861F86B1
:102CE000188A1C861B8604C0323021F484E0898750
:102CF000B7015FC02B853C858B899C89281B390BCC
:102D00003C872B87ED84FE840F851889AD88BE88AB
:102D1000CF88D88CEA14FB040C051D0540F4EE0C9A
:102D2000FF1C001F111F215030403C872B8720E0E3
:102D300030E040E050E080E090E0A0E0B0E460E00F
:102D400070E0EA14FB040C051D0540F0282B392B1C
:102D50004A2B5B2BEA18FB080C091D09B695A795B1
:102D600097958795EE0CFF1C001F111F6F5F7F4F1B
:102D70006F31710531F7DA01C9018F779070A0705A
:102D8000B07080349105A105B10561F427FD0AC03A
:102D9000E114F1040105110529F0205C3F4F4F4F6C
:102DA0005F4F20782D873E874F87588BBE01675F26
:102DB0007F4FCB010E94EA186896EAE00C94C81A8B
:102DC000A8E1B0E0E6EEF6E10C94B01A69837A83EC
:102DD0008B839C832D833E834F83588789E0E82E25
:102DE000F12CEC0EFD1ECE010196B7010E94BF1919
:102DF0008E010F5E1F4FCE010596B8010E94BF19CC
:102E00008985823040F08989823028F0C701B80175
:102E10000E94371A01C08FEF6896E6E00C94CC1A36
:102E2000A8E1B0E0E6E1F7E10C94B01A69837A8397
:102E30008B839C832D833E834F83588789E0E82EC4
:102E4000F12CEC0EFD1ECE010196B7010E94BF19B8
:102E50008E010F5E1F4FCE010596B8010E94BF196B
:102E60008985823040F08989823028F0C701B80115
:102E70000E94371A01C08FEF6896E6E00C94CC1AD6
:102E8000A8E1B0E0E6E4F7E10C94B01A69837A8334
:102E90008B839C832D833E834F83588789E0E82E64
:102EA000F12CEC0EFD1ECE010196B7010E94BF1958
:102EB0008E010F5E1F4FCE010596B8010E94BF190B
:102EC0008985823040F08989823028F0C701B801B5
:102ED0000E94371A01C081E06896E6E00C94CC1A93
:102EE000A8E0B0E0E6E7F7E10C94AD1A9B01AC0175
:102EF00083E08983DA01C9018827B7FD8395992783
:102F0000AA27BB27B82E211531054105510519F413
:102F100082E089833AC08823A9F0203080E0380716
:102F200080E0480780E8580729F460E070E080E01E
:102F30009FEC30C0EE24FF248701E21AF30A040B51
:102F4000150B02C079018A018EE1C82ED12CDC82DA
:102F5000CB82ED82FE820F831887C801B7010E94E1
:102F60009B1801971816190684F4082E04C0EE0C5D
:102F7000FF1C001F111F0A94D2F7ED82FE820F83FF
:102F80001887C81AD90ADC82CB82BA82CE01019690
:102F90000E94EA182896E9E00C94C91AACE0B0E067
:102FA000E4EDF7E10C94B41A69837A838B839C83F4
:102FB000CE010196BE016B5F7F4F0E94BF198D81CC
:102FC000823061F1823050F1843021F48E81882387
:102FD00051F12EC02F81388537FD20C06E812F31F1
:102FE00031051CF06623F9F023C08EE190E0821BCE
:102FF000930B29853A854B855C8504C0569547958A
:10300000379527958A95D2F76623B1F0509540956C
:10301000309521953F4F4F4F5F4F0EC020E030E07D
:1030200040E050E009C02FEF3FEF4FEF5FE704C0F3
:1030300020E030E040E050E8B901CA012C96E2E01F
:103040000C94D01AA8E0B0E0E8E2F8E10C94AC1AD5
:103050007B018C01611571058105910519F482E0F0
:10306000898360C083E089838EE1C82ED12CDC8205
:10307000CB82ED82FE820F831887C801B7010E94C0
:103080009B18FC013197F7FF3BC0222733272E1BEB
:103090003F0B57016801022E04C0D694C794B79421
:1030A000A7940A94D2F740E050E060E070E081E03D
:1030B00090E0A0E0B0E004C0880F991FAA1FBB1FDA
:1030C0002A95D2F70197A109B1098E219F21A0234A
:1030D000B1230097A105B10521F041E050E060E087
:1030E00070E04A295B296C297D294D835E836F83BB
:1030F00078878EE190E08E1B9F0B9C838B8312C0A0
:10310000309781F00E2E04C0EE0CFF1C001F111F23
:103110000A94D2F7ED82FE820F831887CE1ADF0A57
:10312000DC82CB821A82CE0101960E94EA18289690
:10313000EAE00C94C81AEF92FF920F931F937B0161
:103140008C0180E0E81680E0F80681E0080780E066
:10315000180788F48FEFE816F1040105110531F026
:1031600028F088E090E0A0E0B0E017C080E090E0B8
:10317000A0E0B0E012C080E0E81680E0F80680E051
:10318000080781E0180728F088E190E0A0E0B0E0AF
:1031900004C080E190E0A0E0B0E020E230E040E058
:1031A00050E0281B390B4A0B5B0B04C016950795A2
:1031B000F794E7948A95D2F7F701E25FFD4F80819B
:1031C000281B310941095109C9011F910F91FF9035
:1031D000EF900895DF92EF92FF920F931F93FC01FF
:1031E000E480F58006811781D1808081823048F4A7
:1031F00080E090E0A0E1B0E0E82AF92A0A2B1B2B3E
:10320000A5C0843009F49FC0823021F4EE24FF244D
:10321000870105C0E114F1040105110519F4E0E08E
:10322000F0E096C0628173819FEF623879070CF0FD
:103230005BC022E83FEF261B370B2A3131052CF00B
:1032400020E030E040E050E02AC0B801A701022EA3
:1032500004C076956795579547950A94D2F781E013
:1032600090E0A0E0B0E004C0880F991FAA1FBB1F28
:103270002A95D2F70197A109B1098E219F21A02398
:10328000B1230097A105B10521F081E090E0A0E015
:10329000B0E09A01AB01282B392B4A2B5B2BDA01CA
:1032A000C9018F779070A070B07080349105A1052E
:1032B000B10539F427FF09C0205C3F4F4F4F5F4FE6
:1032C00004C0215C3F4F4F4F5F4FE0E0F0E0203003
:1032D000A0E03A07A0E04A07A0E45A0710F0E1E0B6
:1032E000F0E079018A0127C06038710564F5FB01BF
:1032F000E158FF4FD801C7018F779070A070B07070
:1033000080349105A105B10539F4E7FE0DC080E4D4
:1033100090E0A0E0B0E004C08FE390E0A0E0B0E077
:10332000E80EF91E0A1F1B1F17FF05C0169507950B
:10333000F794E794319687E016950795F794E7940C
:103340008A95D1F705C0EE24FF248701EFEFF0E066
:103350006E2F679566276795902F9F77D794DD240A
:10336000D7948E2F8695492F462B582F5D29B7016C
:10337000CA011F910F91FF90EF90DF900895FC011B
:10338000DB01408151812281622F6F7770E0221F23
:103390002227221F9381892F880F822B282F30E02C
:1033A000991F9927991F11969C9311972115310503
:1033B000A9F5411551056105710511F482E037C089
:1033C00082E89FEF13969C938E9312979A01AB011C
:1033D00067E0220F331F441F551F6A95D1F783E022
:1033E0008C930DC0220F331F441F551F12968D91D1
:1033F0009C911397019713969C938E93129720306C
:1034000080E0380780E0480780E4580758F31496B6
:103410002D933D934D935C93179708952F3F31055E
:1034200079F4411551056105710519F484E08C9317
:10343000089564FF03C081E08C9312C01C9210C0F9
:103440002F57304013963C932E93129783E08C9322
:1034500087E0440F551F661F771F8A95D1F7706468
:1034600014964D935D936D937C93179708951F93D6
:10347000DC01FB019C91923008F447C080818230CE
:1034800008F443C0943051F411961C91843099F59E
:103490008181682F70E0611B71093FC0843021F089
:1034A000923031F48230B9F18181882389F12DC0C5
:1034B00011961C9111978230F1F081811817D9F47F
:1034C00012962D913C9113978281938182179307D5
:1034D00094F028173907BCF014968D919D910D90AA
:1034E000BC91A02D24813581468157812817390749
:1034F0004A075B0718F4112341F00AC082179307AB
:10350000A407B50740F4112319F061E070E005C08D
:103510006FEF7FEF02C060E070E0CB011F91089574
:10352000AA1BBB1B51E107C0AA1FBB1FA617B707E9
:1035300010F0A61BB70B881F991F5A95A9F7809505
:103540009095BC01CD0108952F923F924F925F92CA
:103550006F927F928F929F92AF92BF92CF92DF92A3
:10356000EF92FF920F931F93CF93DF93CDB7DEB708
:10357000CA1BDB0B0FB6F894DEBF0FBECDBF19948C
:103580002A88398848885F846E847D848C849B84F3
:10359000AA84B984C884DF80EE80FD800C811B8101
:1035A000AA81B981CE0FD11D0FB6F894DEBF0FBE30
:1035B000CDBFED010895FA01EE0FFF1F30962105F2
:1035C000310599F16115710561F48038BFE39B07FE
:1035D00049F168949038810561F08038BFEF9B070E
:1035E00041F0992342F5FF3FE1053105210511F135
:1035F000E8940894E795D901AA2329F4AB2FBE2FAC
:10360000F85FD0F310C0FF5F70F4A695E0F7F739CC
:1036100050F019F0FF3A38F49F779F930CD00F9039
:1036200007FC905808953EF049C060E070E080E8E3
:103630009FE308954FE79F775F934F933F932F93B7
:10364000D0D02F913F914F915F9114DA05C019F4BA
:103650000EF02EC07DC032C061D0C8F39638C0F7DE
:1036600007F80F92E8942BE33AEA48EB5FE738D18A
:103670000F920F920F924DB75EB70F92F2D0E4EE19
:10368000F0E01FD04F915F91EF91FF91E595EE1F14
:10369000FF1F49F0FE57E0684427EE0F441FFA95DC
:1036A000E1F74195550B64D00F9007FE58C008957F
:1036B00097F99F6780E870E060E008959FEF80ECE5
:1036C0000895DF93CF931F930F93FF92EF92DF92B2
:1036D0007B018C01689405C0DA2EEF01FFD0FE015A
:1036E000E894A5912591359145915591AEF3EF015F
:1036F00059D1FE019701A801DA9479F7DF90EF9094
:10370000FF900F911F91CF91DF91089557FD905831
:10371000440F551F59F05F3F71F04795880F97FB95
:10372000991F61F09F3F79F087950895121613064F
:103730001406551FF2CF4695F1DF08C0161617067E
:103740001806991FF1CF86957105610508940895B3
:10375000E894BB2766277727CB0197F908959B014B
:10376000AC0160E070E080E89FE37ECAA1CF6DC14C
:10377000D5DFE8F39923D9F3940F511DBBF3915092
:10378000504094F059F0882332F0660F771F881F5D
:1037900091505040C1F79E3F510544F7880F911D4D
:1037A0009695879597F908955F3FACF0983E9CF009
:1037B000BB27869577956795B79508F4B160939583
:1037C000C1F7BB0F58F711F460FFE8CF6F5F7F4F71
:1037D0008F4F9F4FE3CFBDCF0EF037C16FCF6894AF
:1037E00067CF9CDFC8F39923D1F3C6F3DF93CF9360
:1037F0001F930F93FF92C92FDD2788232AF021976B
:10380000660F771F881FDAF720E030E040E85FEBB3
:103810009FE3883920F0803E30F021968F77FDD8E5
:10382000ECE0F1E003C0F9D8E9E3F1E04ADF8B0115
:10383000BE01EC01FB2E6F5771097595771F880B40
:10384000990B4EDB28E132E741E35FE347D0AF2D30
:103850009801AE01FF900F911F91CF91DF91A2D0FF
:1038600010C1FA01DC01AA0FBB1F9B01AC01BF57BD
:1038700028F422273327442750781FC0B75188F4F3
:10388000AB2F0024469537952795011CA395D2F3BD
:10389000002069F0220F331F441FB395DAF30DD0D7
:1038A0008BC861307105A0E88A07B94630F49B01E6
:1038B000AC016627772788279078309621F02083FF
:1038C0003183428353830895CED028F0D3D018F0AB
:1038D000952309F0EDCEF2CE11243BCF17DFA0F3F4
:1038E000959FD1F3950F50E0551F629FF001729F95
:1038F000BB27F00DB11D639FAA27F00DB11DAA1FB4
:10390000649F6627B00DA11D661F829F2227B00D00
:10391000A11D621F739FB00DA11D621F839FA00D8B
:10392000611D221F749F3327A00D611D231F849FDB
:10393000600D211D822F762F6A2F11249F57504032
:103940008AF0E1F088234AF0EE0FFF1FBB1F661FCD
:10395000771F881F91505040A9F79E3F510570F086
:10396000A7CEF7CE5F3FECF3983EDCF386957795D4
:103970006795B795F795E7959F5FC1F7FE2B880F81
:10398000911D9695879597F908956DD030F072D076
:1039900020F031F49F3F11F41EF490CE0EF4E09528
:1039A000E7FB86CEE92FB2DE80F3BA176207730712
:1039B0008407950718F071F49EF5CACE0EF4E095D1
:1039C0000B2EBA2FA02D0B01B90190010C01CA01D9
:1039D000A0011124FF27591B99F0593F50F4503E84
:1039E00068F11A16F040A22F232F342F4427585F76
:1039F000F3CF469537952795A795F0405395C9F78E
:103A00007EF41F16BA0B620B730B840BBAF0915045
:103A1000A1F0FF0FBB1F661F771F881FC2F70EC0E4
:103A2000BA0F621F731F841F48F4879577956795B7
:103A3000B795F7959E3F08F0B3CF9395880F08F0A0
:103A40009927EE0F9795879508959F3F31F09150F4
:103A500020F4879577956795B795880F911D969572
:103A6000879597F9089500240A94161617061806E4
:103A70000906089500240A94121613061406050672
:103A80000895092E0394000C11F4882352F0BB0F03
:103A900040F4BF2B11F460FF04C06F5F7F4F8F4F66
:083AA0009F4F0895F894FFCF39
:103AA80001005A3CA00000000000000000000001D6
:103AB80002020303030304040404040404040505C4
:103AC800050505050505050505050505050506069C
:103AD800060606060606060606060606060606067E
:103AE800060606060606060606060606060607076C
:103AF800070707070707070707070707070707074E
:103B0800070707070707070707070707070707073D
:103B1800070707070707070707070707070707072D
:103B2800070707070707070707070707070708081B
:103B380008080808080808080808080808080808FD
:103B480008080808080808080808080808080808ED
:103B580008080808080808080808080808080808DD
:103B680008080808080808080808080808080808CD
:103B780008080808080808080808080808080808BD
:103B880008080808080808080808080808080808AD
:103B9800080808080808080808080808080808089D
:0E3BA80008080808080808080808080808089F
:00000001FF
